:020000040800F2
:1000000010070020FD1C00087D1A00087F1A000858
:10001000831A0008871A00088B1A000800000000E5
:100020000000000000000000000000008F1A00081F
:10003000911A000800000000931A0008951A0008A1
:10004000171D0008171D0008171D0008171D0008C0
:10005000171D0008171D0008171D0008171D0008B0
:10006000171D0008171D0008171D0008171D0008A0
:10007000171D0008171D0008171D0008171D000890
:10008000171D0008171D0008171D0008171D000880
:10009000171D0008171D0008171D0008171D000870
:1000A000171D0008171D0008171D0008171D000860
:1000B000171D0008171D0008171D0008171D000850
:1000C000171D0008171D0008171D0008171D000840
:1000D000171D0008B73E000873400008B140000833
:1000E000171D0008171D0008171D0008171D000820
:1000F000171D0008171D0008171D0008171D000810
:10010000171D0008171D0008171D0008171D0008FF
:10011000171D0008171D0008CD01000853440008F2
:10012000171D0008171D0008171D0008171D0008DF
:1001300000F002F800F03AF80AA090E8000C8244BF
:100140008344AAF10107DA4501D100F02FF8AFF29C
:10015000090EBAE80F0013F0010F18BFFB1A43F0A5
:10016000010318476C4A00008C4A0000103A24BF73
:1001700078C878C1FAD8520724BF30C830C144BF0C
:1001800004680C607047000000230024002500264E
:10019000103A28BF78C1FBD8520728BF30C148BFEA
:1001A0000B6070471FB51FBD10B510BD04F0FBFA02
:1001B0001146FFF7F7FF00F0E9F804F019FB03B46C
:1001C000FFF7F2FF03BC03F0B9FA000010B50121FC
:1001D000FE4803F09AF8002874D0FD4800780C28F7
:1001E00046D2DFE800F0A1064657616670797A7D55
:1001F0008E97F8480078662827D006DC632809D057
:10020000642810D0652832D116E0672822D07728DC
:100210002DD128E04FF4AA7003F074FB4FF4AA70BC
:1002200003F0A7FB23E04FF4AA7003F06BFB4FF43D
:10023000AA7003F082FB1AE04FF4AA7003F056FB99
:100240004FF4AA7003F095FB11E003F083FB03F079
:1002500088FB0CE04FF4AA7003F048FB4FF4AA703F
:1002600003F06BFB03E00220D949087000BF00BF18
:100270005AE003F0DBFCD8490988D84A126888188C
:1002800003F040FBD6490988D44A1268881A03F063
:1002900070FB49E0D048008803F034FBD048008868
:1002A000401D03F066FB3FE003F054FB03F059FBF5
:1002B0003AE0C948008803F025FBC948008803F0EC
:1002C0003CFB31E031E0C448008803F00FFBC44838
:1002D000008803F04EFB27E026E003F0B3FB23E0A9
:1002E00003F0A4FCBC490988BC4A1268881803F0D2
:1002F00009FBBB490988B94A1268881A03F039FB1F
:1003000012E0B548008803F0F1FAB548008803F020
:1003100014FB09E0B048008803F0E8FAB048008810
:100320000A3003F026FB00BF00BFAE48007801286A
:1003300003D14121AC4803F039F9AA48007818B933
:100340004221A94803F032F9A6480078022803D1D7
:100350005921A54803F02AF9A2480078032803D1BF
:100360005A21A14803F022F90121984802F0DEFF4A
:1003700010BD70B50446964805780420944908706D
:10038000A0B204F083F89248057070BD00BF00BFB2
:1003900004F0F3F840F2122003F09EFA0020934993
:1003A00008609349C1F888019249086059218E4834
:1003B00003F0FCF802208B4908700420844908707F
:1003C0000121894803F085F8012240F22551864831
:1003D00003F08BF8012087490860082086490870DF
:1003E00086490870864908700FE08448007808281C
:1003F00003D082480078824908707F480078082836
:1004000003D07D4800787E4908707D480078082830
:10041000EBD000207749086001207549C1F88801B8
:1004200000BF784800680128FBD0002076490860AA
:100430005A2004F02BF84FF4AA7003F04DFA7348D9
:10044000D0F80C0110B901207149087002206049F0
:100450000870142004F01AF800BF6A4820300068C1
:100460000028FAD06348903800680028F5D00F20A3
:1004700004F00CF86248007800287DD10620544929
:1004800008704FF4AA7003F027FA322003F0FEFF41
:1004900000BF5848A03800680028FAD005204C4911
:1004A0000870022003F0F2FF4FF4AA7003F014FA70
:1004B000022047490870A02003F0E8FF00BF514820
:1004C000203000680128FAD04A48A4380068012882
:1004D000F5D04848A03800680128F0D045489C383D
:1004E00000680128EBD04748183000680128E6D0A2
:1004F0004048943800680128E1D03E4890380068B0
:100500000128DCD004203249087001203E490860EF
:1005100000BF3C4800680028FBD000203A49086032
:10052000502003F0B3FF4FF4AA7003F0D5F9322046
:1005300003F0ACFF062026490870282003F0A6FF30
:100540004FF4AA7003F0C8F900BF2A48A038006829
:100550000028FAD004201E490870022008704FF4C9
:10056000AA7003F0B9F9142003F090FF00BF2148EE
:1005700090380068002800E076E0F8D01E2003F0F4
:1005800085FF0A2012490870062003F07FFF05202E
:100590000F4908704FF4AA7003F09EF9242003F06D
:1005A00075FF06200A49087003F070FF4FF4AA7027
:1005B00003F092F9022006490870462003F066FF16
:1005C0004FF4AA7003F088F900BF23E00010004048
:1005D00008000020140000200A000020180000205D
:1005E0000C0000200400002000480040A00121422F
:1005F00000802242B4812142750000207400002056
:100600000300002010012242888122420000224281
:1006100000000020FE48203000680128D5D0FD48A9
:1006200000680128D1D0FB48001D00680128CCD00B
:10063000F848083000680128C7D0F548183000682D
:100640000128C2D0F348103000680128BDD0F1481D
:10065000143000680128B8D00420EF490870012048
:10066000EE49086000BFFEE7ED48007801287DD123
:100670000520E94908704FF4AA7003F02DF91E20F7
:1006800003F004FF00BFE348083000680028FAD0F8
:100690000620E1490870022003F0F8FE4FF4AA702A
:1006A00003F01AF90220DC490870A02003F0EEFEE6
:1006B00000BFD748203000680128FAD0D54800682C
:1006C0000128F6D0D348001D00680128F1D0D14898
:1006D000083000680128ECD0CD48183000680128A7
:1006E000E7D0CC48103000680128E2D0C948143067
:1006F00000680128DDD00420C74908700120C949DD
:10070000086000BFC24800680028FBD00020C5492F
:1007100008605A2003F0BAFE4FF4AA7003F0DCF828
:10072000322003F0B3FE0620BB490870282003F0F6
:10073000ADFE00BFB748083000680028FAD0052099
:10074000B549087003F0A2FE0420B34908700220E6
:1007500008704FF4AA7003F0BFF8642003F096FE0F
:1007600000BFAB4820300068002800E052E0F8D01D
:100770001E2003F08BFE0A20A7490870062003F014
:1007800085FE0620A44908704FF4AA7003F0A4F86F
:100790002A2003F07BFE05209F490870062003F005
:1007A00075FE4FF4AA7003F097F802209A4908707A
:1007B000462003F06BFE4FF4AA7003F08DF800BFE3
:1007C0009348203000680128FAD092480068012838
:1007D000F6D09048001D00680128F1D08D480830FF
:1007E00000680128ECD08A48183000680128E7D05A
:1007F0008848103000680128E2D08648143000682C
:100800000128DDD004208449087001208349086054
:1008100000BFFEE70220804908704FF4AA7003F081
:100820005BF8642003F032FE00207F49087000BFAF
:100830007D4800780028FBD000207B4908700E20FE
:1008400003F024FE042074490870002077490870E2
:100850000820774908707749087001206D49A43154
:10086000086000BF47E073480078082803D170484B
:10087000007808283FD06F48007869490978884295
:1008800003D103206C49087036E069480078644958
:100890000978884203D10220674908702CE0654836
:1008A0000078082807DA63480078002803DB6148ED
:1008B0000078624908705E480078082807DA5C48CA
:1008C0000078002803DB5A4800785D4908705B48CF
:1008D000007808280FDA5948007800280BDB5848C0
:1008E0000078082807DA56480078002803DB002043
:1008F0005149087000E0B6E700BF00BF002045493D
:10090000A4310860032044490870372003F0BEFD7D
:1009100049480078022879D106203F4908704FF4F1
:10092000AA7002F0D9FF282003F0B0FD00BF3948BB
:10093000001D00680028FAD0052037490870022001
:1009400003F0A4FD4FF4AA7002F0C6FF0220324962
:100950000870AA2003F09AFD00BF2D4820300068DF
:100960000128FAD02B4800680128F6D02948001D3C
:1009700000680128F1D02748083000680128ECD031
:100980002348183000680128E7D02248103000685A
:100990000128E2D01F48143000680128DDD004206F
:1009A0001D49087001201F49086026480078D0B909
:1009B0004C2003F050FA142003F068FD40F225515A
:1009C000214802F0A1FE012240F225511E4802F00A
:1009D0008CFD06E01D48007818B100201B49087006
:1009E00000E0F7E700BF00BF094800680028FBD01F
:1009F00000200C4908604FF4AA7002F06DFF32200D
:100A000003F044FD05200449087021E0A1E0000046
:100A1000100122421081214208000020A001214241
:100A200003000020888122421D0000207A0000205F
:100A300075000020740000201C000020050000202C
:100A40000600002000000020003801406F00002058
:100A50003C2003F01BFD00BFFA4800680028FBD0D3
:100A60000620F9490870052003F010FD0220F64920
:100A700008704FF4AA7002F02FFF322003F006FD39
:100A800000BFF24800680028FBD0172003F0FEFCEE
:100A90000A20ED490870062003F0F8FC0520EA4919
:100AA00008704FF4AA7002F017FF212003F0EEFC4B
:100AB0000620E549087003F0E9FC4FF4AA7002F043
:100AC0000BFF0220E04908701E2003F0DFFC4FF40A
:100AD000AA7002F001FF0020DD49087000BFDC4869
:100AE00000780028FBD00020D9490870642003F06A
:100AF000CDFC00BFD54800680128FBD0D148001FBD
:100B000000680128F6D0CF4800680128F2D0CD480F
:100B1000001D00680128EDD0CC4808380068012885
:100B2000E8D0C8480C3000680128E3D0C548103030
:100B300000680128DED00420C34908700120C5499F
:100B40000860C548007810B9482003F084F900BF58
:100B5000FEE7C248007803287ED10520BA49087014
:100B60004FF4AA7002F0B8FE142003F08FFC00BF0F
:100B7000B4480C3000680028FAD00620B24908704A
:100B8000022003F083FC4FF4AA7002F0A5FE0220BD
:100B9000AD490870782003F079FC00BFAB480068CD
:100BA0000128FBD0A748001F00680128F6D0A548FF
:100BB00000680128F2D0A348001D00680128EDD08C
:100BC000A248083800680128E8D09E480C30006828
:100BD0000128E3D09B48103000680128DED00420B3
:100BE0009949087001209E4908609B480078D0B957
:100BF000522003F030F9142003F048FC40F2255154
:100C0000984802F081FD012240F22551954802F0FA
:100C10006CFC06E09448007818B1002092490870F6
:100C200000E0F7E700BF00BF8848203800680028D0
:100C3000FAD000208A4908604FF4AA7002F04CFEF6
:100C4000322003F023FC06207F4908703C2003F08B
:100C50001DFC00BF7B4800E079E000680028F9D067
:100C6000042079490870022008704FF4AA7002F03D
:100C700033FE5A2003F00AFC00BF724810300068AF
:100C80000028FAD0192003F001FC0A206E490870F0
:100C9000062003F0FBFB06206B4908704FF4AA7096
:100CA00002F01AFE262003F0F1FB052066490870C9
:100CB000062003F0EBFB4FF4AA7002F00DFE0220B9
:100CC000614908701E2003F0E1FB4FF4AA7002F0A6
:100CD00003FE00205E49087000BF5D4800780028D0
:100CE000FBD000205A490870642003F0CFFB00BFFE
:100CF000564800680128FBD05248001F00680128B0
:100D0000F6D0504800680128F2D04E48001D006817
:100D10000128EDD04D48083800680128E8D049483E
:100D20000C3000680128E3D04648103000680128E4
:100D3000DED0042044490870012046490860464836
:100D4000007810B9482003F086F800BFFEE70220C3
:100D50003D4908704FF4AA7002F0BEFD3C2003F03C
:100D600095FB00203A49087000BF394800780028F8
:100D7000FBD00020364908700F2003F087FB0420C9
:100D8000314908700020354908703849087008203A
:100D900037490870374908704120374908703820B2
:100DA000487088704220C87001202649A031086030
:100DB0006BE030480078082804D12D4800780828D6
:100DC00000D162E02B4800782C490978884203D191
:100DD00000202249087059E0254800782749097801
:100DE000884203D102201D4908704FE02148007855
:100DF000082807DA1F480078002803DB1D48007820
:100E00001F4908701A480078082807DA184800783F
:100E1000002803DB164800781A4908701848007843
:100E2000082831DA1648007800282DDB15480078AC
:100E3000082829DA13480078002825DB0020074914
:100E4000087023E014812142080000203001224272
:100E50001D000020A0012142000000201C000020F5
:100E600088812242003801406F0000207A00002073
:100E70007500002074000020760000200300002090
:100E8000050000200600002000BF92E700BF002000
:100E9000FE490860FE480078022803D0FC4800782C
:100EA00000287DD100240320FA490870282003F08F
:100EB000EDFA0620F74908704FF4AA7002F00CFD15
:100EC000232003F0E3FA00BFF34800680028FBD0BA
:100ED0000520F0490870022003F0D8FA4FF4AA70F8
:100EE00002F0FAFC0220EB490870782003F0CEFAF9
:100EF0000020EA49087000BFE84800780028FBD0CD
:100F00000020E64908700F2003F0C0FA0420E149F0
:100F100008700020E24908700820E2490870E249A0
:100F200008704120E14908703820487088704220DC
:100F3000C8700120D5490860D5480078022800D142
:100F4000012463E0D8480078082804D1D548007807
:100F5000082800D15AE0D4480078D5490978884259
:100F600003D10320CA49087051E0CE480078D04927
:100F70000978884203D10220C549087047E0CA4871
:100F80000078082807DAC8480078002803DBC6483C
:100F90000078C8490870C3480078082809DA00E0DA
:100FA000FEE3C0480078002803DBBE480078C24951
:100FB0000870C0480078082827DABE480078002862
:100FC00023DBBD48007808281FDABB4800780028DA
:100FD0001BDBB5480078B6490978884205D0012C5A
:100FE00003D10320AA4908700EE0AE480078B0494A
:100FF0000978884205D0012C03D10220A449087049
:1010000002E00020A249087001E000BF9AE700BF9B
:1010100000209E4908609E480078022803D09C4822
:101020000078032805D103209A4908704B2003F06B
:101030002DFA9748007802287ED10620954908703D
:101040004FF4AA7002F048FC322003F01FFA00BFF0
:101050008E48A03800680028FAD005208D49087015
:1010600002F03AFC02208B49087003F00FFA4FF4AB
:10107000AA7002F031FC0220864908708C2003F02F
:1010800005FA00BF8148A03800680028FAD07F48E0
:101090009C3800680028F5D07F4800680028F1D00F
:1010A00004207C4908700020844908608448007846
:1010B000D0B9522002F0CFFE142003F0E7F940F23D
:1010C0002551804802F020FB012240F225517D4845
:1010D00002F00BFA06E07C48007818B100207A494B
:1010E000087000E0F7E700BF00BF6B4818380068E1
:1010F0000028FAD05A2003F0C9F900BF6648183812
:1011000000680028FAD000206C4908604FF4AA70EB
:1011100002F0E2FB322003F0B9F906205D490870C5
:101120003C2003F0B3F900BF5848A03800680028FD
:10113000FAD00220574900E084E008700A2003F04A
:10114000A5F900205549087000BF544800780028D0
:10115000FBD0002051490870502003F097F905207A
:101160004C490870202003F091F902204949087089
:10117000052003F08BF900204849087000BF47485C
:1011800000780028FBD00020444908700320414922
:101190000870552003F07AF905203E490870252093
:1011A00003F074F902203B490870962003F06EF9B1
:1011B0004FF4AA7002F090FB00203849087000BF7D
:1011C000364800780028FBD000203449087064209D
:1011D00003F05CF900203149087000BF2F48007807
:1011E0000028FBD000202D490870642003F04EF940
:1011F00000BF2948083000680128FAD02348A438E5
:1012000000680128F5D02148A03800680128F0D0F6
:101210001E489C3800680128EBD01F480068012850
:10122000E7D01A48943800680128E2D0174890386F
:1012300000680128DDD004201649087001202349E8
:101240000860F8E31248007803287CD10520114992
:1012500008704FF4AA7002F03FFB1E2003F016F94D
:1012600000BF0D4800680028FBD00620094908701F
:10127000022003F00BF94FF4AA7002F02DFB0220BC
:10128000044908708C2003F001F921E0B481214267
:101290001C00002008000020280122421D00002020
:1012A0007A000020750000207400002076000020E5
:1012B0000300002005000020060000208881224253
:1012C00000000020003801406F000020A0012142F2
:1012D00000BFFE4800680128FBD0FD4800680128D7
:1012E000F7D0FB48001D00680128F2D0F84808300C
:1012F00000680128EDD0F548083800680128E8D0DA
:10130000F348103000680128E3D0F1481430006839
:101310000128DED00420EF4908700120EE49086062
:10132000EE480078E0B9522002F095FD142003F059
:10133000ADF840F22551EA4802F0E6F9012240F208
:101340002551E74800E0AFE002F0CFF806E0E548BD
:10135000007818B10020E349087000E0F7E700BF0B
:1013600000BFDA48203800680028FAD00020DA49A7
:1013700008604FF4AA7002F0AFFA322003F086F84A
:101380000620D44908703C2003F080F800BFD04804
:10139000001D00680028FAD00520CE49087003F02F
:1013A00075F80220CB4908700020CF49087000BFB3
:1013B000CD4800780028FBD00020CB4908705A2087
:1013C00003F064F80620C3490870282003F05EF893
:1013D0000220C0490870052003F058F80020C249D7
:1013E000087000BFC04800780028FBD00020BE492C
:1013F00008700320B7490870542003F047F805200F
:10140000B4490870232003F041F80220B149087064
:10141000962003F03BF84FF4AA7002F05DFA00202A
:10142000B149087000BFB04800780028FBD0002008
:10143000AD490870642003F029F80020AA4908701B
:1014400000BFA94800780028FBD00020A6490870FA
:10145000642003F01BF800BF9C4800680128FBD003
:101460009B4800680128F7D09948001D00680128B2
:10147000F2D09748083000680128EDD0934808382A
:1014800000680128E8D09248103000680128E3D0B5
:101490008F48143000680128DED004208D49087080
:1014A000012092490860C6E2002091490870062098
:1014B000884908703C2002F0E9FF00BF8448001D05
:1014C00000680028FAD00220824908700A2002F041
:1014D000DDFF00208449087000BF834800780028A1
:1014E000FBD0002080490870282002F0CFFF0020A8
:1014F0007D49087000BF7C4800780028FBD00020A0
:10150000794908701B2002F0C1FF0420714908705E
:1015100000207849087008207749087077490870DA
:1015200001206B49A431086000207549087046E02D
:1015300072480078082804D16F480078082800D144
:101540003DE06E4800786F490978884203D1032056
:101550006B49087034E0684800786A490978884225
:1015600003D10220664908702AE064480078082800
:1015700007DA62480078002803DB60480078624997
:1015800008705D480078082807DA5B480078002872
:1015900003DB594800785D4908705B4800780828EB
:1015A0000CDA59480078002808DB584800780828E9
:1015B00004DA56480078002800DB01E000BFB7E7F6
:1015C00000BF00204249A43108600320414908704F
:1015D000442002F05BFF4A480078022874D10620BC
:1015E0003C4908704FF4AA7002F076F9322002F0FC
:1015F0004DFF00BF3548083800680028FAD00520A4
:1016000034490870022002F041FF4FF4AA7002F042
:1016100063F902202F4908708C2002F037FF00BFC9
:101620002A4800680128FBD0294800680128F7D023
:101630002748001D00680128F2D0254808300068BE
:101640000128EDD02148083800680128E8D020485A
:10165000103000680128E3D01D48143000680128CC
:10166000DED004201B49087000201B4908601B487D
:101670000078D0B9522002F0EEFB142002F006FFF1
:1016800040F22551164802F03FF8012240F2255160
:10169000134801F02AFF06E01248007818B1002034
:1016A0001049087000E0F7E700BF00BF0748203886
:1016B00000680028FAD00020074908604FF4AA709B
:1016C00002F00AF9322023E0C7E000003001224294
:1016D0001081214208000020888122420000002061
:1016E000003801406F0000201D000020A0012142B1
:1016F0006E0000207A000020750000207400002099
:101700001C0000200300002005000020060000202F
:1017100002F0BCFE0620D04908703C2002F0B6FE64
:1017200000BFCE4800680028FBD00520CA490870D9
:1017300002F0ACFE0A20C8490870142002F0A6FE90
:101740000220C54908700A2002F0A0FE0020C4490A
:10175000087000BFC24800780028FBD00020C049B4
:101760000870492002F092FE0520BB4908701F2036
:1017700002F08CFE0220B8490870142002F086FEA8
:101780000020B749087000BFB54800780028FBD09A
:101790000020B34908700320AF4908704C2000E0D6
:1017A0004AE102F073FE0620AB490870282002F0DF
:1017B0006DFE0520A849087002F068FE0220A649C7
:1017C0000870322002F062FE4FF4AA7002F084F832
:1017D0000020A349087000BFA14800780028FBD072
:1017E00000209F490870642002F050FE00209C49B0
:1017F000087000BF9A4800780028FBD00020984964
:101800000870642002F042FE00BF9648006801287C
:10181000FBD0924800680128F7D09048001D00686E
:101820000128F2D08D48083000680128EDD08D489D
:10183000083800680128E8D088481030006801287E
:10184000E3D08648143000680128DED004208249A5
:101850000870012084490860EDE005207E49087089
:101860004FF4AA7002F038F81E2002F00FFE00BFFD
:101870007A48001D00680028FAD0062076490870D2
:10188000022002F003FE4FF4AA7002F025F80220B5
:10189000714908708C2002F0F9FD00BF71480068A2
:1018A0000128FBD06D4800680128F7D06B48001D67
:1018B00000680128F2D06948083000680128EDD09E
:1018C0006848083800680128E8D06448103000688B
:1018D0000128E3D06148143000680128DED00420DC
:1018E0005D49087001206149086061480078D0B9FD
:1018F000522002F0B0FA142002F0C8FD40F2255147
:101900005C4801F001FF012240F22551594801F0E5
:10191000ECFD06E05848007818B1002056490870E0
:1019200000E0F7E700BF00BF4E48203800680028FD
:10193000FAD000204D4908604FF4AA7001F0CCFFA6
:10194000322002F0A3FD0620434908703C2002F03B
:101950009DFD00BF4148001D00680028FAD002200C
:101960003D4908700A2002F091FD00203C490870B2
:1019700000BF3B4800780028FBD0002038490870A1
:10198000642002F083FD6420FEF7F3FC0620324958
:101990000870282002F07AFD02202F4908701E20CE
:1019A00002F074FD00202E49087000BF2C4800781A
:1019B0000028FBD000202A4908700320264908701F
:1019C0005A2002F063FD062023490870282002F007
:1019D0005DFD022020490870962002F057FD4FF46B
:1019E000AA7001F079FF00BF1E4800680128FBD0F3
:1019F0001A4800680128F7D01848001D006801281F
:101A0000F2D01648083000680128EDD01548083893
:101A100000680128E8D01148103000680128E3D0A0
:101A20000E48143000680128DED004200A490870EE
:101A300001200D49086000BF0CE002F051FA482176
:101A40000C4801F0B3FD00BF40210A4801F01CFE24
:101A50000028F9D0F1E700000800002010812142A1
:101A60001D00002030012242A00121428881224233
:101A700000000020003801406F000020704700BFC8
:101A8000FEE700BFFEE700BFFEE700BFFEE77047CE
:101A900070477047704700000CB50020019000901F
:101AA0006C48006840F480306A49086000BF6948AB
:101AB000006800F4003000900198401C01900098EC
:101AC00018B90198B0F5A06FF1D16248006800F430
:101AD000003010B10120009001E00020009000983B
:101AE000012843D15C48006840F010005A49086062
:101AF0000846006820F0030008600846006840F0CF
:101B000002000860534840685249486008464068EF
:101B100048600846406840F4806048600846406875
:101B200020F47C1048600846406840F4E8104860A3
:101B30000846006840F08070086000BF45480068B3
:101B400000F000700028F9D04248406820F00300FF
:101B5000404948600846406840F00200486000BFC5
:101B60003C48406800F00C000828F9D10CBD10B5C5
:101B7000FFF792FF10BD10B53648006840F0010035
:101B80003449086008464068344908403149486093
:101B900008460068324908402E4908600846006837
:101BA00020F4802008600846406820F4FE00486069
:101BB0004FF41F008860FFF7DAFF4FF000602949FB
:101BC000086010BD10B5002100200022214B5B6889
:101BD00003F00C0121B1042906D0082928D107E01F
:101BE000214B224C236027E01F4B204C236023E035
:101BF000184B5B6803F47010164B5B6803F480327B
:101C0000022303EB904022B9194B4343174C236046
:101C10000DE0104B5B6803F4003323B1144B4343D6
:101C2000124C236003E0104B4343104C236003E04D
:101C30000D4B0E4C236000BF00BF064B5B68C3F327
:101C400003130C4CE15C094B1B68CB40074C236031
:101C500010BD000000100240002002400000FFF80C
:101C6000FFFFF6FE08ED00E000127A0020000020E1
:101C700000093D002400002030B5039C002545608C
:101C8000456185618160C2600361046030BD2DE9FA
:101C9000FC5F06460C463046216802F019FF0546F7
:101CA000606802F031FE8146294602F0AFFD8046B1
:101CB00002F00EFE60602846616902F013FF019099
:101CC00065612069019902F037FE8246606802F082
:101CD0001BFE0090E16802F02FFE81462946A068B5
:101CE00002F02AFE8346494602F090FD80465146A6
:101CF00002F08CFD07463846BDE8FC9F0948804746
:101D000009480047FEE7FEE7FEE7FEE7FEE7FEE7DD
:101D1000FEE7FEE7FEE7FEE704480549054A064BF5
:101D200070470000771B00083101000810010020F7
:101D30001007002010030020100300203149014348
:101D4000314A1160704770B5002100230F22C4781A
:101D500004B32D4C246804F4E064C4F5E064210A63
:101D6000C1F10403CA40447804FA03F184781440B2
:101D700021430901254C0678A155047804F01F057C
:101D80000124AC4005786D11AD0005F1E025C5F8E2
:101D9000004109E0047804F01F050124AC401C4D0B
:101DA0000678761145F8264070BD1A4A0A4002436B
:101DB000154B1B1F1A60704739B1134A121D126868
:101DC0000243114B1B1D1A6006E00F4A121D1268D8
:101DD00082430D4B1B1D1A607047042808D14FF039
:101DE000E021096941F004014FF0E022116107E0B0
:101DF0004FF0E021096921F004014FF0E022116168
:101E0000704700000000FA050CED00E000E400E07F
:101E100080E100E080FFFF1F10B50446CC488442FB
:101E200008D10121042000F02DFB0021042000F046
:101E300029FB46E0C748844208D10121082000F070
:101E400021FB0021082000F01DFB3AE0C24884423B
:101E500008D10121102000F015FB0021102000F016
:101E600011FB2EE0BD48844208D10121202000F062
:101E700009FB0021202000F005FB22E0B848844245
:101E800008D10121402000F0FDFA0021402000F09F
:101E9000F9FA16E0B348844208D10121802000F00D
:101EA000F1FA0021802000F0EDFA0AE0AE48844209
:101EB00007D10121801500F0E5FA0021A01500F0FE
:101EC000E1FA10BD10B50121084600F0DBFA00214F
:101ED000012000F0D7FA10BD2DE9F041024600259F
:101EE0000026002000230024002791F803C00CF0F6
:101EF0000F0591F803C00CF0100CBCF1000F03D0DB
:101F000091F802C04CEA050591F800C0BCF1000F41
:101F100031D0146800202BE04FF0010C0CFA00F3D4
:101F2000B1F800C00CEA03069E4220D183004FF0B6
:101F30000F0C0CFA03F7BC4305FA03FC4CEA04044B
:101F400091F803C0BCF1280F06D14FF0010C0CFA38
:101F500000FCC2F814C00AE091F803C0BCF1480FBD
:101F600005D14FF0010C0CFA00FCC2F810C0401C67
:101F70000828D1D31460B1F800C0BCF1FF0F34DDE4
:101F8000546800202EE000F1080C4FF0010808FA18
:101F90000CF3B1F800C00CEA03069E4221D1830085
:101FA0004FF00F0C0CFA03F7BC4305FA03FC4CEAA4
:101FB000040491F803C0BCF1280F05D100F1080C0E
:101FC00008FA0CF8C2F8148091F803C0BCF1480F6D
:101FD00007D100F1080C4FF0010808FA0CF8C2F81C
:101FE0001080401C0828CED35460BDE8F0814FF625
:101FF000FF710180022181700421C1707047024687
:10200000002093680B400BB1012000E000207047D6
:102010000146886880B2704702460020D3680B40B2
:102020000BB1012000E0002070470146C86880B273
:10203000704701617047416170470AB1016100E07A
:1020400041617047C16070474FF480320A4382613A
:102050008161826182698269704702460020434B38
:1020600018684FF68073184040EA021008433F4B4F
:10207000186070473E49C8617047F0B50A460023B2
:1020800000240021002500F00046B6F1004F02D1E7
:10209000364EF16901E0354E7168C0F3034583B2F5
:1020A00000F44016B6F5401F08D121F070612F4EA4
:1020B000766826F070662D4F7E6012E000F4801680
:1020C000B6F5801F06D1032606FA05F4A14341F0B8
:1020D000706106E0460D360103FA06F6B14341F0A1
:1020E000706122B1460D360103FA06F6314300F065
:1020F0000046B6F1004F02D11C4EF16101E01B4ECB
:102100007160F0BD30B500228B071C0F0F2303FA5E
:1021100004F2164B08338C1053F824309343134CBD
:1021200008348D1044F8253023468C1053F82430A1
:102130008C07240F00FA04F423430C4C08348D1050
:1021400044F8253030BD0A49DC3108607047000092
:1021500000080140000C0140001001400014014043
:1021600000180140001C0140002001400000014017
:1021700000002042DF48006840F00100DD490860AF
:1021800008464068DC490840DA494860084600686B
:10219000DA490840D74908600846006820F48020E2
:1021A00008600846406820F4FE0048604FF41F00B5
:1021B00088607047CF49096821F48031CD4A1160A9
:1021C0001146096821F480211160B0F5803F03D0E9
:1021D000B0F5802F0ED106E0C649096841F4803180
:1021E000C44A116007E0C349096841F4A021C14A0B
:1021F000116000E000BF00BF704710B5014600222B
:10220000002300204A11012A02D1BA4C236806E0BB
:10221000022A02D1B74C236A01E0B64C636A01F08E
:102220001F02012494401C400CB1012000E000205A
:1022300010BD38B5002000900024002500BF3120DB
:10224000FFF7DBFF05460098401C00900098B0F5B2
:10225000A06F01D0002DF2D03120FFF7CEFF08B1E2
:10226000012400E00024204638BD01460020A14A98
:10227000106820F0F80040EAC10010607047A049E3
:1022800008607047024600209A4B586820F47C1082
:1022900042EA01031843974B586070479849086613
:1022A000704701460020934A506820F0030008431D
:1022B000506070478F48406800F00C00704701463E
:1022C00000208C4A506820F0F000084350607047AE
:1022D00001460020874A506820F4E06008435060BF
:1022E000704701460020834A506820F4605040EA5D
:1022F000C1005060704729B17E4A527A02437D4B3B
:102300005A7204E07B4A527A82437A4B5A7270477F
:102310007B49D8310860704701460020754A5068F3
:1023200020F440400843506070470021714A203239
:102330001170704A82F82010012802D004280AD1B6
:1023400004E001216B4A2032117005E00521694A41
:102350002032117000E000BF00BF7047694908607B
:1023600070476449096A0143624A116270476549CE
:1023700044390860704730B5002100220024002352
:102380005C4D6D6805F00C0121B1042905D00829C8
:1023900023D105E05C4D056022E05B4D05601FE048
:1023A000544D6D6805F47012524D6D6805F480341B
:1023B000022505EB92421CB9544D554305600BE0D4
:1023C0004C4D6D6805F400351DB1504D5543056009
:1023D00002E04D4D5543056002E04B4D056000BFE6
:1023E00000BF444D6D6805F0F0010909484D6B5C74
:1023F0000568DD4045603F4D6D6805F4E061090A00
:10240000434D6B5C4568DD4085603A4D6D6805F471
:102410006051C90A3E4D6B5C4568DD40C560354D75
:102420006D6805F44041890B3A4D6B5CC568B5FB9E
:10243000F3F5056130BD29B12E4A526902432D4B97
:102440005A6104E02B4A526982432A4B5A61704711
:1024500029B1284A92690243264B9A6104E0254A31
:1024600092698243234B9A61704729B1214AD2690C
:102470000243204BDA6104E01E4AD26982431D4BBD
:10248000DA61704729B11B4AD2680243194BDA60FE
:1024900004E0184AD2688243164BDA60704729B1CB
:1024A000144A12690243134B1A6104E0114A12697B
:1024B0008243104B1A6170471249403908607047D7
:1024C0000F49C86470470B49C87170470948406A92
:1024D00040F0807007494862704701460020054A75
:1024E00092680A400AB1012000E0002070470149CB
:1024F00088727047001002400000FFF8FFFFF6FEF0
:10250000000042428004424200127A0000093D006D
:10251000340000204400002010B50446FE488442E8
:1025200008D10121C014FFF7ADFF0021E014FFF72F
:10253000A9FFC4E0B4F1804F08D101210846FFF79C
:10254000AEFF00210120FFF7AAFFB8E0F348844264
:1025500008D101210220FFF7A2FF00210220FFF78E
:102560009EFFACE0EE48844208D101210420FFF731
:1025700096FF00210420FFF792FFA0E0E948844283
:1025800008D101210820FFF78AFF00210820FFF76A
:1025900086FF94E0E448844208D101211020FFF72F
:1025A0007EFF00211020FFF77AFF88E0DF48844299
:1025B00008D101212020FFF772FF00212020FFF722
:1025C0006EFF7CE0DA48844208D101214014FFF715
:1025D00059FF00216014FFF755FF70E0D548844291
:1025E00009D10121C804FFF74DFF00214FF400205D
:1025F000FFF748FF63E0D048844209D10121080574
:10260000FFF740FF00214FF48010FFF73BFF56E03B
:10261000CA48844209D101214805FFF733FF002150
:102620004FF40010FFF72EFF49E0C548844208D15F
:1026300001214020FFF733FF00214020FFF72FFF4B
:102640003DE0C048844208D101218020FFF727FFE8
:1026500000218020FFF723FF31E0BB48844208D1EE
:1026600001218015FFF71BFF0021A015FFF717FFC1
:1026700025E0B648844209D101210804FFF702FF92
:1026800000214FF48030FFF7FDFE18E0B04884428F
:1026900009D101214804FFF7F5FE00214FF4003075
:1026A000FFF7F0FE0BE0AB48844208D1012188041B
:1026B000FFF7E8FE00214FF48020FFF7E3FE10BD96
:1026C00000220288944B98420ED0994B98420BD02E
:1026D000B0F1804F08D0914B984205D0904B984272
:1026E00002D0904B984204D14FF68F731A404B881A
:1026F0001A438D4B984207D08C4B984204D04FF62A
:10270000FF431A40CB881A4302808B8883850B884D
:102710000385814B98420BD0854B984208D08B4B58
:10272000984205D08A4B984202D08A4B984201D1F8
:102730000B7A038601238382704770B50024002240
:102740000023058C4FF6FE7635400584028C838885
:10275000048B4FF68F752C40B51E2C400D882C43F2
:10276000751E2A400D892A434D882A436A4DA84286
:102770000BD06F4DA84208D0744DA84205D0744DBF
:10278000A84202D0734DA84213D14FF6F7752A40E4
:102790004D892A434FF6FB752A408D882A434FF610
:1027A000FF652B404FF6FF552B408D892B43CD897C
:1027B0002B4383800483CD888586028470BD70B5E9
:1027C000002400220023058C4FF6EF763540058467
:1027D000028C8388048B48F6FF752C404FF6FF452A
:1027E0002C400D884FF6FF7606EA05252C434FF660
:1027F000DF752A400D8906EA05152A434D8806EA49
:1028000005152A43444DA84202D0494DA8421DD186
:102810004FF67F752A404D894FF6FF7606EA05157B
:102820002A434FF6BF752A408D8806EA05152A43CC
:102830004FF6FF352B404FF2FF752B408D8906EA8E
:1028400085052B43CD8906EA85052B4383800483C8
:10285000CD880587028470BD70B500240022002356
:10286000058C4FF6FF6635400584028C8388848B87
:102870004FF68F752C404FF6FC752C400D882C437D
:102880004FF6FF552A400D894FF6FF7606EA0525DB
:102890002A434D8806EA05252A431F4DA84202D047
:1028A000234DA8421DD14FF2FF752A404D894FF6A6
:1028B000FF7606EA05252A434FF6FF352A408D8824
:1028C00006EA05252A434EF6FF752B404DF6FF75A7
:1028D0002B408D8906EA05152B43CD8906EA05159F
:1028E0002B4383808483CD888587028470BD70B537
:1028F000002200230024058C4EF6FF763540058427
:10290000038C8488828B48F6FF752A404FF6FF457A
:102910002A400D8820E00000002C01400004004007
:1029200000080040000C004000100040001400406F
:1029300000340140004C014000500140005401406F
:1029400000180040001C00400020004000400140F2
:1029500000440140004801404FF6FF7606EA052595
:102960002A434DF6FF752B400D8906EA05352B43AA
:102970004D8806EA05352B43FA4DA84202D0FA4DA0
:10298000A84208D14BF6FF752C408D894FF6FF7693
:1029900006EA85152C4384808283CD88A0F84050B8
:1029A000038470BD828B4FF2FF331A408283828B87
:1029B0004FF6FF7303EA01231A4382837047F0B591
:1029C0000C461546002200210026078C4EF6FF7C9F
:1029D00007EA0C070784828B018C4FF6FF7707EA22
:1029E000043640F6FF473A404FF6FF7707EA0527DF
:1029F0003A434FF6FF7707EA03373A43D94FB842D5
:102A00000ED0D94FB8420BD0B0F1804F08D0D74F7D
:102A1000B84205D0D64FB84202D0D64FB84206D100
:102A20004DF6FF77394046F48057394305E047F6C5
:102A3000FF57394044F48057394382830184F0BD05
:102A4000828B4FF6F3731A408283828B0A43828310
:102A50007047F0B50C461546002200210026078C71
:102A60004FF6FF6C07EA0C070784828B018C4FF648
:102A7000FF7707EA04264FF60C773A404FF6FF77C8
:102A800007EA03172F433A43B64FB8420ED0B64F6A
:102A9000B8420BD0B0F1804F08D0B44FB84205D047
:102AA000B34FB84202D0B34FB84206D14FF6FF57EA
:102AB000394046F48077394305E04FF2FF573940FB
:102AC00044F48077394382830184F0BD028B4FF256
:102AD000FF331A400283028B4FF6FF7303EA012390
:102AE0001A4302837047F0B50C46154600220021B8
:102AF0000026078C4FF6EF7C07EA0C070784028B51
:102B0000018C4FF6FF7707EA041640F6FF473A407C
:102B10004FF6FF7707EA03373A434FF6FF7707EAA6
:102B200005273A438F4FB8420ED08F4FB8420BD093
:102B3000B0F1804F08D08D4FB84205D08C4FB842CD
:102B400002D08C4FB84206D14FF6DF77394046F0BD
:102B50001007394305E04FF65F77394044F010071E
:102B6000394302830184F0BD028B4FF6F3731A40A0
:102B70000283028B0A4302837047F0B50C46154668
:102B800000220021068C4FF6FE773E400684028B21
:102B9000018C4FF60C7632407E1C06EA03162E435B
:102BA0003243704EB0420ED06F4EB0420BD0B0F1F7
:102BB000804F08D06D4EB04205D06D4EB04202D06D
:102BC0006C4EB04206D14FF6FD76314044F001061E
:102BD000314305E04FF6F576314044F001063143CC
:102BE00002830184F0BD70B505460C465D48854200
:102BF0000ED05D4885420BD0B5F1804F08D05B48C0
:102C0000854205D05A48854202D05A48854200D1B3
:102C100000E000BF208850B92389A2886188284637
:102C2000FFF7ABFFE1882846FFF79EFF25E02088ED
:102C300004280AD12389A28861882846FFF753FF18
:102C4000E1882846FFF742FF17E0208808280AD1CC
:102C50002389A28861882846FFF7FBFEE188284681
:102C6000FFF7EEFE09E02389A28861882846FFF776
:102C7000A6FEE1882846FFF795FE70BD2DE9F041DC
:102C800005460C4600260127608808B9022600E0A8
:102C90000026A088012801D1022700E00127208812
:102CA000A0B92389A28861882846FFF766FFE188DA
:102CB0002846FFF759FF23893A4631462846FFF751
:102CC00012FFE1882846FFF701FF13E02389A2885D
:102CD00061882846FFF707FFE1882846FFF7F6FEE0
:102CE00023893A4631462846FFF747FFE1882846C0
:102CF000FFF73AFFBDE8F0810A884B881A438B88BA
:102D00001A43CB881A430B891A434B891A438B8980
:102D10001A43A0F8442070474FF6FF7181800021CC
:102D20000180C18041800172704700210180418093
:102D30008180C180018141818181C18170470021F1
:102D400001804180012181800021C1800181704783
:102D50000021018041808180C18001814181818188
:102D600070470000002C0140003401400004004086
:102D700000080040000C004021B1028842F001022E
:102D8000028004E002884FF6FE731A40028070470A
:102D900031B1B0F8442042F40042A0F8442005E0EC
:102DA000B0F84420C2F30E02A0F8442070471AB1D4
:102DB00083890B43838102E083898B43838170473E
:102DC0008182704741EA0203A0F8483070471AB187
:102DD00083890B43838102E083898B43838170471E
:102DE00001894FF6F8721140018170470A460021AF
:102DF00001894FF68F73194011430181704730B537
:102E000004460D4629462046FFF7F0FF208940F092
:102E10000700208130BD2DE9F04104460D461646DD
:102E20001F46602D06D13B46012231462046FFF762
:102E30005AFE05E03B46012231462046FFF79DFE43
:102E400029462046FFF7D2FF208940F00700208165
:102E5000BDE8F08130B50C4600210189C9B24FF6BA
:102E6000FF7505EA0325154325432943018130BD3C
:102E70002DE9F04105460E46174698460024434684
:102E80003A4631462846FFF7E5FF2C894FF6F870A1
:102E9000044044F007044FF68F70044044F070047F
:102EA0002C81BDE8F081F0B504460D4616461F465C
:102EB0003B46324629462046FFF7CCFF208940F4A6
:102EC00080402081F0BD0185828270470A46002142
:102ED00001884FF68F731940114301807047F0B598
:102EE0000C4615461E460021002200230189028B54
:102EF000038C4FF6F877394021434FF6FC473A40B0
:102F000040F201173A434FF6DD773B404FF6FF772B
:102F100007EA06172F433B43018102830384F0BD78
:102F20000A460021018B4FF68F731940114301832C
:102F300070470A460021018B48F6FF7319404FF68F
:102F4000FF7303EA02231943018370470A460021F5
:102F5000818B4FF68F7319401143818370470A4666
:102F60000021818B48F6FF7319404FF6FF7303EA87
:102F7000022319438183704721B1028842F0800205
:102F8000028004E002884FF67F731A400280704787
:102F900021B1828842F00402828004E082884FF6E8
:102FA000FB731A408280704721B1828842F0080288
:102FB000828004E082884FF6F7731A40828070475F
:102FC00021B1828842F00102828004E082884FF6BB
:102FD000FE731A40828070470A460021018B4FF62B
:102FE000F77319401143018370470A460021018B92
:102FF0004FF2FF7319404FF6FF7303EA02231943A0
:10300000018370470A460021818B4FF6F773194000
:103010001143818370470A460021818B4FF2FF7371
:1030200019404FF6FF7303EA022319438183704767
:103030000A460021018B4FF6FB73194011430183AF
:1030400070470A460021018B4FF6FF3319404FF6B7
:10305000FF7303EA02231943018370470A460021E4
:10306000818B4FF6FB7319401143818370470A46E9
:103070000021818B4FF6FF3319404FF6FF7303EAAF
:1030800002231943818370470A460021018B4FF6C2
:103090007F7319401143018370470A460021018B59
:1030A000C1F30E014FF6FF7303EA022319430183B4
:1030B00070470A460021818B4FF67F7319401143F8
:1030C000818370470A460021818BC1F30E014FF6C0
:1030D000FF7303EA02231943818370470A460021E4
:1030E000018C4FF6FD7319401143018470470A4665
:1030F0000021018C4FF6F77319401143018470478A
:103100000A460021018C4FF6DF7319404FF6FF731A
:1031100003EA02131943018470470A460021018C17
:103120004FF67F7319404FF6FF7303EA02131943FA
:10313000018470470A460021018C4FF6FF53194065
:103140004FF6FF7303EA02231943018470470A46CE
:103150000021018C4FF2FF7319404FF6FF7303EA11
:1031600002231943018470470A460021018C4DF661
:10317000FF7319404FF6FF7303EA023319430184CA
:10318000704730B5002301248C40A3B2048C9C43CB
:103190000484048C02FA01F5ADB22C43048430BDE2
:1031A00030B5002304248C40A3B2048C9C430484D7
:1031B000048C02FA01F5ADB22C43048430BD70B525
:1031C0000346002000241846183001258D40ACB27B
:1031D0001D8CA5431D8409B1082909D100EB6100AC
:1031E000056825F0700505600568154305600EE06B
:1031F0000D1FC5F34E052844056825F4E04505601C
:1032000005684FF6FF7606EA02263543056070BD75
:1032100021B1028842F00202028004E002884FF6E7
:10322000FD731A400280704721B1028842F0040207
:10323000028004E002884FF6FB731A400280704758
:1032400021B1828842F08002828004E082884FF6B9
:103250007F731A408280704702884FF6F7731A40D6
:10326000028002880A430280704782884FF68F737B
:103270001A40828082880A438280704702894FF612
:10328000F8731A40028102890A4302817047028959
:103290004FF67F731A40028102890A430281704708
:1032A00081847047818570478186704701877047A8
:1032B00081877047A0F84010704702884FF6FF439F
:1032C0001A40028002880A43028070470146888EB5
:1032D00070470146088F70470146888F7047014646
:1032E000B1F8400070470146888C70470146088D50
:1032F000704702460020138A0B400BB1012000E00A
:1033000000207047CA430282704730B50246002051
:1033100000230024158A05EA0103958905EA0104C2
:1033200013B10CB1012000E0002030BDCA4302827D
:103330007047000010B50446FB48844209D10121C2
:103340008803FFF79FF800214FF48040FFF79AF8B9
:1033500032E0F648844209D101214804FFF79FF882
:1033600000214FF40030FFF79AF825E0F04884423E
:1033700009D101218804FFF792F800214FF4802041
:10338000FFF78DF818E0EB48844209D10121C80409
:10339000FFF785F800214FF40020FFF780F80BE0DD
:1033A000E548844208D101210805FFF778F800219B
:1033B0004FF48010FFF773F810BD2DE9F04786B089
:1033C00005460E460024A24600BFA1460027B0894C
:1033D00000B100BF2F462C8A4CF6FF700440F088E5
:1033E00004432C82AC894EF6F3100440B088318936
:1033F0000843718908430443AC81AC8A4FF6FF400F
:103400000440B0890443AC8201A8FEF7B4FFC6486B
:10341000874202D1DDF810A001E0DDF80CA0A889F8
:1034200000F4004040B10AEBCA0000EB0A1031681A
:103430004900B0FBF1F807E00AEBCA0000EB0A1004
:1034400031688900B0FBF1F86420B8FBF0F00401AA
:103450002009642101FB1089A88900F4004040B1D3
:10346000322000EBC900B0FBF1F000F0070004438C
:1034700008E0322000EB09106421B0FBF1F000F00D
:103480000F0004432C8106B0BDE8F0874FF41651BD
:10349000016000218180C18001810C2141810021D6
:1034A0008181704710B502460020108A4FF2FF0359
:1034B00018400B884C8823438C882343CC882343B3
:1034C0001843108210BD0021018041808180C1809D
:1034D000704721B1828942F40052828104E08289DE
:1034E0004DF6FF731A4082817047F0B50346002401
:1034F00000260025002040F66A17B94200D100BF1F
:103500001846C1F3421401F01F06012707FA06F519
:10351000012C01D10C3004E0022C01D1103000E06C
:1035200014301AB107682F43076002E00768AF4301
:103530000760F0BD1AB1838A0B43838202E0838A5D
:103540008B4383827047028A4FF6F0731A400282DF
:10355000028A0A430282704782894FF2FF731A403F
:10356000828182890A438281704721B1828942F037
:103570000202828104E082894FF6FD731A40828143
:103580007047028A4FF6DF731A400282028A0A43AA
:103590000282704721B1028A42F48042028204E032
:1035A000028A4BF6FF731A4002827047C1F3080289
:1035B0008280704701468888C0F30800704781897F
:1035C00041F0010181817047028BD2B20283028BEC
:1035D00042EA012202837047028B02F47F42028397
:1035E000028B0A430283704721B1828A42F0200293
:1035F000828204E0828A4FF6DF731A40828270472B
:1036000021B1828A42F01002828204E0828A4FF65F
:10361000EF731A408282704721B1828A42F0080219
:10362000828204E0828A4FF6F7731A4082827047E2
:1036300021B1828942F40042828103E08289C2F38F
:103640000E028281704721B1828A42F40062828236
:1036500004E0828A4FF2FF731A4082827047828AA6
:103660004FF6FB731A408282828A0A438282704735
:1036700021B1828A42F00202828204E0828A4FF6FD
:10368000FD731A408282704702460020B1F5007F28
:1036900000D100BF13880B400BB1012000E00020D7
:1036A000704701F40072B2F5007F00D100BFCA4339
:1036B0000280704770B502460024002300250020D8
:1036C00040F66A16B14200D100BFC1F3421501F0C5
:1036D0001F03012606FA03F3012D02D19689334018
:1036E00006E0022D02D1168A334001E0968A33406B
:1036F0000C12012606FA04F41688344013B10CB1FA
:10370000012000E0002070BD10B50022002340F62B
:103710006A14A14200D100BF0A1201249440A3B24E
:10372000DC43048010BD000000380140004400402C
:1037300000480040004C00400050004000BF70476F
:1037400000BF2B4A128802F04002002AF9D0C2B210
:10375000274B1B1D1A80704710B586B00446012107
:1037600044F20400FEF774FE4FF40070ADF814004C
:1037700003208DF8160018208DF8170005A91D48A4
:10378000FEF7AAFB4FF48060ADF8140004208DF81A
:10379000170005A91748FEF79FFB25208DF80000AC
:1037A00003208DF801008DF8020001208DF8030040
:1037B0006846FEF7C8FA01940020ADF80800ADF89D
:1037C0000A00ADF80C00ADF810000C20ADF80E00AA
:1037D00001A90748FFF7F1FD012240F225510448F5
:1037E000FFF783FE01210248FFF773FE06B010BD0C
:1037F000003801400008014030B589B005460C464C
:1038000001210C20FEF724FE01210820FEF72DFEE9
:1038100010208DF823000120ADF820008DF8220043
:1038200008A96248FEF758FB10208DF823000220FB
:10383000ADF8200001208DF8220008A95B48FEF7B2
:103840004BFB18208DF8230001208DF82200032067
:10385000ADF8200008A95648FEF73EFB0020ADF861
:103860000A00ADF80600ADF80850ADF8044001A913
:103870005048FEF725FF6020ADF810000120ADF89C
:1038800012000020ADF81800ADF8160004A9494850
:10389000FEF753FF04A94748FEF791FF0121454871
:1038A000FFF76AFA09B030BD10B50446B4F57A7F67
:1038B00001DB40F2E73421463E48FFF7F5FC10BD3E
:1038C00010B50446B4F57A7F01DB40F2E7342146B7
:1038D0003848FFF7EBFC10BDB0F5617F01DD4FF418
:1038E00061703549088035490880704710B5044635
:1038F00001203349086040F2E731091B88B2FFF725
:10390000DFFF10BD10B50446B4F5617F01DD4FF453
:103910006174002C03DA6442A0B2FFF7E7FF14F5EC
:10392000617F03DA4FF46170FFF7E0FF0020244964
:103930000860A0B2FFF7C4FF10BD10B50446012017
:103940001F49091D086040F2E731091B88B2FFF7E3
:10395000ABFF10BD10B5002019490860FFF7B0FF9C
:1039600010BD10B500201649091D0860FFF79CFF27
:1039700010BD10B50446B4F5617F01DD4FF46174EC
:10398000002C03DA6442A0B2FFF7D7FF14F5617F81
:1039900003DA4FF46170FFF7D0FF00200849091DDA
:1039A0000860A0B2FFF780FF10BD000000100140CA
:1039B00000080140000C00400A0000200C0000201C
:1039C0008001224208B501210820FEF741FD0420B4
:1039D0008DF803008002ADF8000001208DF8020090
:1039E0006946DD48FEF778FA1020ADF80000694618
:1039F000DA48FEF771FA2020ADF800006946D74892
:103A0000FEF76AFA4020ADF800006946D348FEF799
:103A100063FA4FF48060ADF800006946CF48FEF7C6
:103A20005BFA4FF48070ADF800006946CB48FEF7B2
:103A300053FA4FF40070ADF800006946C748FEF72E
:103A40004BFA08BD10B50020C5490860C54908609B
:103A5000C548006828B1C248006800F58010C04918
:103A60000860C148001D006828B1BD48006800F525
:103A70008030BB490860BC480830006828B1B848AD
:103A8000006800F58050B6490860B848006828B161
:103A9000B348006800F58070B1490860B248103042
:103AA000006820B1AE4800681030AD490860AC48ED
:103AB0000068B0F5883F41D012DCB0F5805F49D096
:103AC00005DC102874D0B0F5887F72D172E0B0F5B3
:103AD000885F57D0A0F5885010380028F5D15CE0F9
:103AE000A3490844A8B3A349084430B1B0F5803FC6
:103AF0000ED0B0F5883F73D115E00520FFF71DFF0C
:103B00004FF4FA70FFF7FEFE00209B4908708BE02F
:103B10000520FFF712FF4FF4FA70FFF7F3FE0020C5
:103B20009549087080E00520FFF707FF4FF4FA7011
:103B3000FFF7E8FE00209049087075E00520FFF7C8
:103B4000FCFE4FF4FA70FFF7DDFE00208A49087092
:103B50006AE00BE04FF4DC70FFF70BFF4FF4DC7012
:103B6000FFF7D0FE0220844908705DE04FF4DC705E
:103B7000FFF7FFFE4FF4DC70FFF7C4FE02207E4922
:103B8000087051E04FF4FA70FFF7F3FE0520FFF7DD
:103B9000ADFE01207849087046E04FF4FA70FFF757
:103BA000E8FE0520FFF7A2FE0120734908703BE004
:103BB0000BE015E04FF4FA70FFF7DBFE0520FFF78E
:103BC00095FE01206C4908702EE04FF4FA70FFF763
:103BD000D0FE0520FFF78AFE01206749087023E028
:103BE00065480078012807D14FF4FA70FFF7C1FE4D
:103BF0004FF4FA70FFF77AFE5F48007838B94FF457
:103C0000FA70FFF77FFE4FF4FA70FFF796FE5A48FE
:103C10000078022807D14FF4E170FFF773FE4FF4EC
:103C2000E170FFF7A6FE00BF00BF10BD70B5002019
:103C300052490860524908604C4800685149D1F81F
:103C4000201100EB41014F48D0F8240101EB800026
:103C50004A4908604448001D00684A49D1F81011DB
:103C600000EB41014848D0F8300101EB80004449A5
:103C700008600020454908804549088040480068A0
:103C8000082825D2DFE800F004080C1014181C20C6
:103C900000203F4908801BE001203D49088017E0D3
:103CA00001203B49088013E00220394908800FE0D9
:103CB0000220374908800BE003203549088007E0DF
:103CC00002203349088003E002203149088000BF08
:103CD00000BF2A480068082825D2DFE800F0040861
:103CE0000C1014181C200020284908801BE001201B
:103CF0002649088017E001202449088013E00220AB
:103D0000224908800FE00220204908800BE00320B0
:103D10001E49088007E002201C49088003E00220B9
:103D20001A49088000BF00BF194800881749098850
:103D3000401A0C4908600846006800F0E5FD054699
:103D40001449FDF7A4FF80F00044204600F0C0FDB8
:103D50000449086070BD000000100140000C0140E3
:103D60005800002018000020108121422801224222
:103D700000EFFEFF0011F1FF5C000020500000206A
:103D80004C0000200080214200002242560000200A
:103D9000540000208400002000B587B00121880372
:103DA000FEF756FB01211C20FEF752FB18208DF870
:103DB0001B004FF40070ADF8180003208DF81A00B6
:103DC00006A9FE48FEF788F804208DF81B000002C3
:103DD000ADF8180006A9F948FEF77EF804208DF822
:103DE0001B000820ADF8180006A9F548FEF774F886
:103DF0004FF4165002900020ADF814000C20ADF8DE
:103E000012000020ADF81000ADF80E00ADF80C0067
:103E100002A9EC48FFF7D1FA25208DF80400012013
:103E20008DF8070000208DF805008DF8060001A828
:103E3000FDF789FF40F22551E248FFF765FC0122BA
:103E400040F22551DF48FFF750FB0121DD48FFF725
:103E500040FB07B000BD10B504462BE000BF402179
:103E6000D848FFF711FC0028F9D040F22551D54879
:103E7000FFF74AFC012240F22551D248FFF735FBFB
:103E80002146D048FFF792FB052000F0FFFA002002
:103E9000CD490870CD4800880A280BD140F2255141
:103EA000C848FFF731FC002240F22551C548FFF712
:103EB0001CFB10BDD2E710B540F22551C148FFF7F9
:103EC000F9FB38B1BF48FFF775FBC04908800120F6
:103ED000BD49087040F22551BA48FFF715FC10BDE6
:103EE00010B5002423E00121B648FFF7F2FA0122C1
:103EF00040F22551B348FFF7F8FA4121B148FFF7E6
:103F000055FB002405E0B248015DAE48FFF74EFBCB
:103F1000641C062CF7DB4221AA48FFF747FB04206C
:103F200000F0B4FAA9480088092800D100E0DAE7D7
:103F300000BF10BD00B587B001218804FEF795FAD7
:103F400001210820FEF784FA18208DF81B004FF499
:103F50008060ADF8180003208DF81A0006A99D486E
:103F6000FDF7BAFF04208DF81B004002ADF81800E1
:103F700006A99848FDF7B0FF4FF4165002900020B4
:103F8000ADF814000C20ADF812000020ADF81000C0
:103F9000ADF80E00ADF80C0002A98F48FFF70DFA3E
:103FA00027208DF8040001208DF8070000208DF8EF
:103FB00005008DF8060001A8FDF7C5FE012240F2BC
:103FC00025518548FFF791FA01218348FFF781FACF
:103FD00007B000BD00B587B001214804FEF745FADF
:103FE00001210420FEF734FA18208DF81B0004206C
:103FF000ADF8180003208DF81A0006A96F48FDF7E8
:104000006BFF04208DF81B000820ADF8180006A9EE
:104010006A48FDF761FF4FF4964002900020ADF82A
:1040200014000C20ADF812000020ADF81000ADF81F
:104030000E00ADF80C0002A96848FFF7BEF9262073
:104040008DF8040001208DF8070000208DF8050090
:104050008DF8060001A8FDF776FE012240F22551F9
:104060005E48FFF742FA01215C48FFF732FA07B0D9
:1040700000BD10B540F225515848FFF71BFB88B131
:104080000020574908605749C1F888015348FFF795
:1040900091FA5549088008460088532802D101202A
:1040A0005249087040F225514C48FFF72DFB10BDD6
:1040B00010B54948FFF77EFAC1B24D480278007842
:1040C000401C4B4B18704B4881540078412809D054
:1040D00000201946087047490870082046490870B2
:1040E0004649087042480078032802DD0020404914
:1040F00008703F480078032821D13E48C078422804
:104100001AD13C484078382802D13C48007802E077
:10411000384840783038394908703648807838282F
:1041200002D10846007802E03248807830383249BF
:10413000087001203249087000202D49087040F2B3
:1041400025512548FFF7E0FA10BD10B5002406E020
:1041500000202C4908552C4921F81400641C082C17
:10416000F6DB00202949087001211B48FFF7B1F94F
:1041700041211948FFF71AFAC82000F087F90022F8
:1041800040F225511448FFF7B0F900BF4021124812
:10419000FFF77AFA0028F9D042210F48FFF706FA14
:1041A00000BF40210C48FFF76FFA0028F9D000212A
:1041B0000948FFF78EF901222AE0000000080140BB
:1041C00000100140003801406F0000205E00002018
:1041D00060000020000C0140004800400044004006
:1041E000A001214200802242720000201D00002018
:1041F0007B00002076000020750000207400002065
:104200007A00002066000020A00000206E00002040
:1042100040F225515948FFF768F900240DE058484D
:1042200030F81400042807DB012056490855564889
:104230000078401C54490870641C082CEFDB10BD4A
:1042400010B5002406E000204E4908554C4921F8DD
:104250001400641C082CF6DB00204B490870012177
:104260004648FFF736F959214448FFF79FF9C8201F
:1042700000F00CF9002240F225514048FFF735F9D3
:1042800000BF40213D48FFF7FFF90028F9D0422147
:104290003A48FFF78BF900BF40213848FFF7F4F99F
:1042A0000028F9D000213548FFF713F9012240F228
:1042B00025513248FFF719F900240DE0304830F855
:1042C0001400032807DB01202E4908552E480078EA
:1042D000401C2D490870641C082CEFDB10BD10B584
:1042E000002406E0002027490855254921F814003C
:1042F000641C082CF6DB00202349087001211F48AC
:10430000FFF7E7F85A211D48FFF750F9C82000F0E1
:10431000BDF8002240F225511848FFF7E6F800BF2B
:1043200040211648FFF7B0F90028F9D04221134880
:10433000FFF73CF900BF40211048FFF7A5F900281E
:10434000F9D000210D48FFF7C4F8012240F22551B1
:104350000A48FFF7CAF800240DE0094830F81400B5
:10436000032807DB01200749085507480078401C4F
:1043700005490870641C082CEFDB10BD00480040A4
:10438000A0000020660000206E0000207FB50546DA
:104390000C4601211020FEF768F81448FEF7BCF81F
:1043A0000020ADF80A00ADF80600ADF80850ADF8F1
:1043B000044001A90D48FEF783F901210B48FEF7DF
:1043C000B5FF012211460948FEF7F1FC36208DF8B1
:1043D000000000208DF8010001208DF802008DF80A
:1043E00003006846FDF7AFFC7FBD000000100040F1
:1043F0001FB501212020FEF738F82E48FEF78CF873
:104400000020ADF80A00ADF8060040F29F50ADF86C
:10441000080040F2F310ADF8040001A92548FEF7AA
:104420004FF901212348FEF781FF0122114621485F
:10443000FEF7BDFC37208DF8000000208DF801004C
:104440008DF8020001208DF803006846FDF77BFC23
:104450001FBD10B501211748FEF757FF88B1164858
:104460000088401C144908800846008813490988C0
:10447000884206DB00201249087000210D48FEF733
:104480007BFC01210B48FEF751FF10BD10B504461F
:1044900001200B4908700020074908800748048064
:1044A00001210448FEF768FC00BF05480078002899
:1044B000FBD110BD001400407C0000207E000020D5
:1044C0008000002008B501210820FDF7C1FF102061
:1044D0008DF803004002ADF8000001208DF80200C5
:1044E00069460348FDF7F8FC00200249086008BD52
:1044F000000C0140B481214208B501213420FDF7B0
:10450000A7FF10208DF803000001ADF80000012086
:104510008DF8020069469048FDF7DEFC0420ADF8F6
:10452000000069468D48FDF7D7FC08BD08B501219C
:104530001020FDF78DFF01208DF8020048208DF836
:10454000030042F20200ADF8000069468448FDF71E
:10455000C3FC08BD08B501211020FDF779FF042038
:104560008DF803001020ADF8000003208DF8020044
:1045700069467B48FDF7B0FC08BD08B54FF4A06064
:10458000FDF7DCFBFFF726FDFFF7B6FFFFF7E2FFC5
:10459000FFF718FA41F61F416320FFF7F7FE0020EE
:1045A000704B0246704900907048FDF765FBFFF7BD
:1045B000C1FC482140F2E730FFF71EF9FFF7ECFBA2
:1045C000FFF716FFFFF77EFF4FF4AA70FFF784F99D
:1045D00004206749087001216648FEF7CDFB08BD3D
:1045E00010B5002406E0002063490855634921F80E
:1045F0001400641C082CF6DB00206149087020E0E0
:1046000001216048FEF765FF02205F4908705921CB
:104610005C48FEF7CBFF012240F225515948FEF7D6
:1046200064FF00240BE0554830F81400052805DB32
:10463000E0B2564908705649087003E0641C082C23
:10464000F1DBDDE75248007852490978884206D10B
:1046500002205149087000204B4908707BE001227C
:1046600040F225514748FEF740FF00BF4021454832
:10467000FFF70AF80028F9D05A214248FEF796FFC2
:1046800000BF40213F48FEF7FFFF0028F9D05A2124
:104690003C48FEF78BFF00BF40213A48FEF7F4FF8D
:1046A0000028F9D05A213748FEF780FF00BF40218B
:1046B0003448FEF7E9FF0028F9D05A213148FEF7C7
:1046C00075FF032030490870002406E000202A49C5
:1046D00008552A4921F81400641C082CF6DB002038
:1046E0002749087023E001212648FEF7F2FE5A21EF
:1046F0002448FEF75BFF032023490870012240F2A3
:1047000025512048FEF7F1FE00240EE01F480078F6
:10471000844200D108E0194830F81400052802DB73
:104720001B490C7004E000BF641C082CEEDBDAE7C8
:104730001748007817490978884206D1032016499E
:10474000087000201049087005E001201249087027
:1047500000200D49087010BD000801400014014000
:1047600000100140000096430000F0428400002049
:10477000080000200010004066000020A00000207B
:104780006E000020004800400400002002000020CD
:1047900001000020030000201C000020704770472B
:1047A000704770477047754600F02CF8AE4605001C
:1047B0006946534620F00700854618B020B5FDF73E
:1047C000ABFABDE820404FF000064FF000074FF075
:1047D00000084FF0000B21F00701AC46ACE8C0091F
:1047E000ACE8C009ACE8C009ACE8C0098D46704728
:1047F00010B50446AFF300802046BDE81040FBF73B
:10480000DEBC000000487047B000002090EA010FB5
:1048100048BF81F0004100F16C81421A3CBF801A10
:1048200089184FEAD0524FF07F4C1CEA410FA2EB9F
:10483000D15318BF9CEA026F00F03B804FF0004C50
:104840004CEA00204CEA012121FA03FC10EB0C0C8D
:104850001ED202F1FF325FEA1C2040EBC25038BF8B
:1048600070471CF07F0F4FEA400C18BFBCF17F4F20
:1048700038BF7047C3F12003994008BF20F0010002
:10488000BCF17F4F38BF7047A0F1C04000F01BB9AA
:104890004FEA3C00000A40EBC25028BF1CF0FF0F5B
:1048A0004FEA400CE6D018BFBCF17F4F38BF7047CD
:1048B000EAE79CEA026F05D010EA5C0F08BF00F03F
:1048C0000040704710B500F0B8F800BF64FBBE3E72
:1048D00041000B0ED3F19E0208D950F400034FEAB9
:1048E000032323FA02F048BF4042704710B500F09E
:1048F000A4F800BF49922480002070476FF0004266
:1049000082EA20007047000010F0004148BF40429A
:10491000B0FA80F310FA03F2C3F19D030BD051EA11
:10492000C35101EB1220530638BF704700F101005C
:1049300008BF20F0010070474FF47F0C1CEAD01232
:104940001EBF1CEAD11392EA0C0F93EA0C0F00F081
:10495000478090EA010F48BF42F480724FF0004C4C
:104960004CEA00204CEA012102EB0302A0FB0113F8
:10497000A2F50002002918BF43F001035B0028BF25
:104980004FEA330342EB22425FEA132C4CEBC25056
:104990002EBFBCEB436FB2F57C0F70474FEA036C40
:1049A000BCF1004F08BF20F00100B2F57C0F38BF0A
:1049B00070470BD582F0FF0212F5803FC8BF7047E9
:1049C00000F1C040D8BF00F00040704700F5000C77
:1049D0005FEA4C0C48BF7047B0F1C04000F073B8BC
:1049E00090EA010F0CEAD11348BF42F4807262458D
:1049F00038BF634504D280EA010000F000407047F0
:104A000010B500F01AF800BF8900013E00F007B8A9
:104A100000F009B85FEA410C5FEA1C6C08D080EA3C
:104A2000010000F050B85FEA400C5FEA1C6CF6D160
:104A30004FF00040A0F5800070470EF1020E2EF0FE
:104A4000030E5EF8044B244204D44FEA4102B2F153
:104A50007F4F11D84FEA4003B3F17F4F0CD80ED1EE
:104A60004FEAD07CB2F17F4F0CEB4C0C0CF1020CF6
:104A700008BF4CEBD17C04E04FF0080C01E04FEA9A
:104A8000D17C0CEB4C0324FA03F404F00704B4F1DA
:104A9000040C06D20EEB840CBDE810404CF0010C67
:104AA0006047DFE80CF0070802024FF00040A0F575
:104AB000800010BD0846420018BFD2F1807288BF46
:104AC00000F0004010BDFF2141EAD050C005704702
:104AD00080F0004090EA010F7FF59FAE81F0004129
:104AE00000F007B890EA010F48BF81F000413FF5A0
:104AF00094AE421A04D882F00042A0EB02001144A6
:104B00004FEAD0524FF07F4C1CEA410FA2EBD15339
:104B100018BF9CEA026F4AD04FF0004C4CEA0020CC
:104B20004CEA012121FA03FCB0EB0C0C0FD412F07B
:104B3000FE0F36D05FEA4C001DD5001240EBC2508C
:104B400038BF70471CF03F0F18BF70470BE0A2F151
:104B500001025FEA1C2040EBC25038BF70471CF0D6
:104B60007F0F18BF7047C3F12003994014BF401E48
:104B700020F00100704780084FEA122308BF7047F9
:104B8000B0FA80FCA2EB0C02CCF1280C60FA0CF01D
:104B900093EA122F04BF00EBC25070474FEAC37074
:104BA0007047130A5FEADC1008BF7047F6E79CEA1B
:104BB000026F04D010EA5C0F08BF0020704710B5E8
:104BC000FFF73BFF40DFF63E81F0004070470000FA
:104BD000F04B000800000020840000006C01000879
:104BE000744C0008840000208C0600008801000836
:104BF00000080A080008083000000000000000005B
:104C000000000000000000000000000000000000A4
:104C100000A24A040000000000000000010203049A
:104C20000607080900000000010203040102030452
:104C30000607080902040608000000000000000042
:104C40000000000000000000000000000200000062
:104C50000000000000000000000000000000000054
:104C600000000000000041080842000000000000B1
:044C70000000000040
:0400000508000131BD
:00000001FF
